:020000040000FA
:100000008804002091010000B1010000750100008A
:1000100000000000000000000000000000000000E0
:10002000000000000000000000000000B50100001A
:100030000000000000000000B7010000B90100004E
:10004000BB010000BB010000BB0100003105000046
:10005000BB010000BB010000BB010000BB010000B0
:100060002D090000BB010000BB010000BB01000026
:10007000BB010000BB010000BB010000BB01000090
:10008000BB010000BB010000BB010000BB01000080
:10009000BB010000BB010000BB010000BB01000070
:1000A000BB010000BB010000BB010000BB01000060
:1000B000BB010000BB010000BB010000BB01000050
:1000C00000F002F800F046F80CA030C808382418F8
:1000D0002D18A246671EAB4654465D46AC4201D180
:1000E00000F038F87E460F3E0FCCB646012633426C
:1000F00000D0FB1AA246AB46334318471C0A000047
:100100003C0A0000103A02D378C878C1FAD85207E6
:1001100001D330C830C101D504680C6070470000BD
:100120000023002400250026103A01D378C1FBD813
:10013000520700D330C100D50B60704710B5782945
:1001400002D100F065F810BD002010BD1FB51FBD25
:1001500010B510BD00F096F91146FFF7F7FF00F05B
:1001600053FC00F0AEF903B4FFF7F2FF03BC00F05C
:10017000B5F9000004207146084202D0EFF309806F
:1001800001E0EFF308807146004A1047A505000022
:100190000D480E4901600E4901600E4901600E4A8A
:1001A0000E491160002101600D4880470D4800474D
:1001B000FEE7FEE7FEE7FEE7FEE7FEE70A480B493B
:1001C000094A0B4B70470000000100505900000025
:1001D000160000008800000024000050A55A00000E
:1001E00015090000C10000008800002088040020DC
:1001F000880000200FB4054910B503AA029800F04A
:1002000015F910BC08BC04B018470000100000200D
:1002100070B504460D4621461068C046C046218888
:10022000090502D50F4A7A4402E00E4A7A440E329A
:1002300023460021243305E006070009360F965DAA
:100240005E54491C0028F7D120780023000705D50B
:10025000702D03D0002901D002231132204600F076
:100260008DF870BDC6080000F3B50446002081B0CB
:1002700020622046E168884700287AD0252802D0ED
:100280006268A16871E0E16820460025884706465B
:100290000020E0610746A0612A2E0AD0304600F017
:1002A0007BFB002827D0B8000019303E0090866103
:1002B00019E00298BA00121902C891610290204612
:1002C000E1688847012F064617D1E06900281FDA48
:1002D000202085431CE000980A218069484300994A
:1002E0008019303888612046E1688847064600F06A
:1002F00053FB0028EFD1012F0AD02E2E08D1204623
:10030000E16888470646202005437F1C022FC3DB97
:10031000A069002803DA4042A06101200543E807F4
:1003200001D010208543002E23D0304641381928B3
:1003300003D80120C00205432036204625603146FF
:10034000029A1546FFF7FAFE00280BD0012806D0C6
:10035000ED1DE808C000083002908AE709E02D1D75
:10036000029586E762683046A1689047206A401C83
:100370007EE7206AFEBD704770477047FFB50446B0
:100380000D4681B0243000902168880604D51022E3
:10039000E0699143216000E00120A84201DD471B94
:1003A00000E000270498A1697A191018081AA061C2
:1003B0002078C00602D42046C046C046002608E089
:1003C00003986268A168805D9047206A401C761C93
:1003D000206204988642F3DB2078C0060AD52046C6
:1003E000C046C04606E06268A16830209047206A97
:1003F000401C206238467F1E0028F4DC07E000988D
:100400006268A168405D9047206A401C20622846CF
:100410006D1E0028F3DC2046C046C046207800064A
:1004200002D5022005B0F0BD0120FBE7084B70B5F6
:100430000D467B4400F013F80446284600F0D8FA35
:10044000002802D00020C04370BD204670BD0000CF
:10045000C305000001694A1C02610878704700B5B5
:100460008FB00291002105910549019379440391D0
:10047000114604906846FFF7F7FE0FB000BD00007C
:10048000E5FFFFFF754600F025F8AE46050069461A
:100490005346C008C000854618B020B5FFF78EFE51
:1004A00060BC00274908B6460026C0C5C0C5C0C507
:1004B000C0C5C0C5C0C5C0C5C0C5403D49008D460A
:1004C000704710B50446C046C0462046FFF74BFEB5
:1004D00010BD000000487047280000200149182086
:1004E000ABBEFEE7260002007047000003488068AC
:1004F0000121084301498860704700000000014065
:1005000004498968021D012393409943014A91607F
:10051000704700008040005010B5002400BF03E089
:100520002046FFF7EDFF641C042CF9D310BD00003A
:1005300010B504E000200B49087000F047FA0A48A3
:1005400000690121C90308400028F3D001200549B2
:1005500008700548006A0121C9030843024908627E
:1005600010BD000004000020404000500849896888
:10057000FF225140064A9160054980398968021D71
:10058000012393401943024A803A9160704700006A
:1005900000410050FF200130014908607047000011
:1005A00000E100E0044604A0FFF724FE204600F02E
:1005B0004BFA00BFFEE70000496E204861726420DC
:1005C0004661756C742048616E646C65720A000047
:1005D00010480068800080080E490860084680695D
:1005E0000121C90388430B4988610846C06901217C
:1005F000C90308430749C861074800680821084340
:1006000005490860054800688000800803490860C3
:10061000704700004040005000E100E000E400E0CE
:1006200000B522480068000A000220490860084618
:100630000068032108431D4908600846006803213B
:10064000C90688431949086008460068C90208437A
:100650001649086008464068000E000648600846D3
:100660004068134908431149486000F055F9FFF705
:1006700091FF0E4800680121890708430B49086073
:100680000C48032109024018806840218843094929
:1006900003221202891888600648114640188068B3
:1006A0004021084303498918886000BD00000140CB
:1006B000C0C62D0000E100E000B50346184600F07A
:1006C00001F800BD00BF0B4989690122D205114024
:1006D0000029F8D1074908600A280AD100BF054956
:1006E00089690122D20511400029F8D10D21014A62
:1006F0001160704700000540084909684300032263
:100700009A409143054A116011460968430001224D
:100710009A401143014A1160704700008040005028
:10072000F3B581B0029800F03FF90090FFF7F4FEB6
:1007300058488068FF2108435649886000988079AE
:10074000C407E40F00980079C507ED0F0098807882
:10075000C607F60F00980078C707FF0FE843A043CD
:10076000B0432946A143314039400843214629403E
:10077000B143B9430843C1014648806888434549AD
:1007800088603846A043F143A943394008432946CD
:10079000A143B143084381013E48806888433D49F5
:1007A0008860284630403840E943A143B14339408E
:1007B00008432946A143B143B94308432146A9430D
:1007C0003140B94308434101324880688843314988
:1007D000886028463040B8432146314039400843BC
:1007E00021462940B94308432946A143B143394032
:1007F0000843010127488068884326498860E84308
:10080000A043B04338402946A143B143B94308430C
:100810002146A94331403940084321462940B1438C
:1008200039400843C1001B488068884319498860E3
:10083000E843A0433840E943A143314001433046F7
:10084000A0433840084321462940B143394008437A
:1008500081001048806888430E4988600846806897
:10086000022188430B49886020462840B84321462E
:10087000294031400843E943A1433140B94308438B
:10088000044989688143034881600198FFF76EFE3F
:10089000FEBD00000041005010201B4900BF06E0D3
:1008A00059221A4B1A6016221A6088221A60174AB7
:1008B0001268012AF4D100BF154A126801231A43B5
:1008C000134B1A6004E00A46491E002A00DC04E0CB
:1008D0000F4AD26802408242F5D100BF0C4A5269E9
:1008E00007231B029A430A4B5A611A4652695A61FE
:1008F0001A46926804231A43054B9A6000BF0022EF
:10090000024B1A6000BF7047804F12000001005078
:1009100000020050704700000348006801214907A9
:1009200008430149086070470000014010B51848AD
:100930000078002828D017480068401C1549086036
:10094000084600680F281FD9002008600846406844
:10095000401C4860084640680F2815D900204860B0
:1009600008468068401C8860084680680F280BD9BC
:10097000002088600846C068401CC8600846C068FF
:100980000F2801D900F04EF8FFF7B0FD10BD0000B0
:10099000040000201800002030380A2801D201206D
:1009A000704700207047000010B50146002007E0A6
:1009B000012282400A4002414300034CE252401CA3
:1009C0000428F5DB004810BD0600002010B5002407
:1009D00009E0FFF7A1FDA200044B9A58D1B2E0B2A2
:1009E000FFF79EFE641C042CF3D310BD18000020FA
:1009F00001460020C043704730B504460D462046EE
:100A0000FFF75AFE204630BDFFF746FF0C20FFF7E8
:100A100073FEFFF7DDFDFFF703FE01E0FFF7D6FFF2
:100A2000FCE70000002004E000218200044B995004
:100A3000401C0428F8D30021024A116070470000CE
:100A4000180000200000002010B5044610A0216806
:100A5000FFF7D0FB11A06168FFF7CCFB12A0A168E3
:100A6000FFF7C8FB13A0E168FFF7C4FB14A02169DE
:100A7000FFF7C0FB15A06169FFF7BCFB16A0A169D9
:100A8000FFF7B8FB17A0E169FFF7B4FB10BD00004A
:100A9000723020203D20307825780A0072312020E5
:100AA0003D20307825780A00723220203D203078B1
:100AB00025780A00723320203D20307825780A00FE
:100AC000723132203D20307825780A006C72202067
:100AD0003D20307825780A00706320203D20307852
:100AE00025780A00707372203D20307825780A003E
:100AF0003031323334353637383941424344454654
:100B0000403058003031323334353637383961624D
:100B10006364656640307800380B000000000020F8
:100B20001800000004010000500B00001800002015
:100B3000700400002001000000000000010000001F
:100B400000000000000000000000000000000000A5
:040000050000019165
:00000001FF
