:020000040000FA
:100000006804002091010000B101000075010000AA
:1000100000000000000000000000000000000000E0
:10002000000000000000000000000000B50100001A
:100030000000000000000000B7010000B90100004E
:10004000BB010000BB010000BB010000BB010000C0
:10005000BB010000BB010000BB010000BB010000B0
:10006000D1060000BB010000BB010000BB01000085
:10007000BB010000BB010000BB010000BB01000090
:10008000BB010000BB010000BB010000BB01000080
:10009000BB010000BB010000BB010000BB01000070
:1000A000BB010000BB010000BB010000BB01000060
:1000B000BB010000BB010000BB010000BB01000050
:1000C00000F002F800F046F80CA030C808382418F8
:1000D0002D18A246671EAB4654465D46AC4201D180
:1000E00000F038F87E460F3E0FCCB646012633426C
:1000F00000D0FB1AA246AB46334318470007000066
:1001000020070000103A02D378C878C1FAD8520705
:1001100001D330C830C101D504680C6070470000BD
:100120000023002400250026103A01D378C1FBD813
:10013000520700D330C100D50B60704710B5782945
:1001400002D100F065F810BD002010BD1FB51FBD25
:1001500010B510BD00F096F91146FFF7F7FF00F05B
:10016000DCFA00F0AEF903B4FFF7F2FF03BC00F0D5
:10017000B5F9000004207146084202D0EFF309806F
:1001800001E0EFF308807146004A104711050000B6
:100190000D480E4901600E4901600E4901600E4A8A
:1001A0000E491160002101600D4880470D4800474D
:1001B000FEE7FEE7FEE7FEE7FEE7FEE70A480B493B
:1001C000094A0B4B70470000000100505900000025
:1001D000160000008800000024000050A55A00000E
:1001E000B9060000C100000068000020680400207B
:1001F000680000200FB4054910B503AA029800F06A
:1002000015F910BC08BC04B018470000000000201D
:1002100070B504460D4621461068C046C046218888
:10022000090502D50F4A7A4402E00E4A7A440E329A
:1002300023460021243305E006070009360F965DAA
:100240005E54491C0028F7D120780023000705D50B
:10025000702D03D0002901D002231132204600F076
:100260008DF870BDAA050000F3B50446002081B0EA
:1002700020622046E168884700287AD0252802D0ED
:100280006268A16871E0E16820460025884706465B
:100290000020E0610746A0612A2E0AD0304600F017
:1002A00029FA002827D0B8000019303E0090866156
:1002B00019E00298BA00121902C891610290204612
:1002C000E1688847012F064617D1E06900281FDA48
:1002D000202085431CE000980A218069484300994A
:1002E0008019303888612046E1688847064600F06A
:1002F00001FA0028EFD1012F0AD02E2E08D1204676
:10030000E16888470646202005437F1C022FC3DB97
:10031000A069002803DA4042A06101200543E807F4
:1003200001D010208543002E23D0304641381928B3
:1003300003D80120C00205432036204625603146FF
:10034000029A1546FFF7FAFE00280BD0012806D0C6
:10035000ED1DE808C000083002908AE709E02D1D75
:10036000029586E762683046A1689047206A401C83
:100370007EE7206AFEBD704770477047FFB50446B0
:100380000D4681B0243000902168880604D51022E3
:10039000E0699143216000E00120A84201DD471B94
:1003A00000E000270498A1697A191018081AA061C2
:1003B0002078C00602D42046C046C046002608E089
:1003C00003986268A168805D9047206A401C761C93
:1003D000206204988642F3DB2078C0060AD52046C6
:1003E000C046C04606E06268A16830209047206A97
:1003F000401C206238467F1E0028F4DC07E000988D
:100400006268A168405D9047206A401C20622846CF
:100410006D1E0028F3DC2046C046C046207800064A
:1004200002D5022005B0F0BD0120FBE7084B70B5F6
:100430000D467B4400F013F80446284600F061F9AD
:10044000002802D00020C04370BD204670BD0000CF
:10045000D502000001694A1C02610878704700B5A6
:100460008FB00291002105910549019379440391D0
:10047000114604906846FFF7F7FE0FB000BD00007C
:10048000E5FFFFFF754600F025F8AE46050069461A
:100490005346C008C000854618B020B5FFF78EFE51
:1004A00060BC00274908B6460026C0C5C0C5C0C507
:1004B000C0C5C0C5C0C5C0C5C0C5403D49008D460A
:1004C000704710B50446C046C0462046FFF74BFEB5
:1004D00010BD0000004870470800002001491820A6
:1004E000ABBEFEE7260002007047000003488068AC
:1004F0000121084301498860704700000000014065
:10050000FF200130014908607047000000E100E071
:10051000044604A0FFF76EFE204600F007F900BF76
:10052000FEE70000496E2048617264204661756CE8
:10053000742048616E646C65720A000000B5224840
:100540000068000A0002204908600846006803218C
:1005500008431D490860084600680321C90688430E
:100560001949086008460068C9020843164908602E
:1005700008464068000E0006486008464068134977
:1005800008431149486000F099F8FFF7B9FF0E4899
:1005900000680121890708430B4908600C480321C2
:1005A0000902401880684021884309490322120249
:1005B0008918886006481146401880684021084321
:1005C00003498918886000BD00000140C0C62D00A5
:1005D00000E100E000B50346184600F001F800BD58
:1005E00000BF0B4989690122D20511400029F8D1C9
:1005F000074908600A280AD100BF05498969012214
:10060000D20511400029F8D10D21014A116070472F
:100610000000054008490968430003229A409143BD
:10062000054A116011460968430001229A401143AE
:10063000014A1160704700008040005010201B49A3
:1006400000BF06E059221A4B1A6016221A6088224F
:100650001A60174A1268012AF4D100BF154A1268BD
:1006600001231A43134B1A6004E00A46491E002A6C
:1006700000DC04E00F4AD26802408242F5D100BF9C
:100680000C4A526907231B029A430A4B5A611A46C5
:1006900052695A611A46926804231A43054B9A60BC
:1006A00000BF0022024B1A6000BF7047804F12004B
:1006B000000100500002005070470000034800682D
:1006C00001214907084301490860704700000140C3
:1006D00010B50C2000F004F8FFF708FF10BD000073
:1006E00003498968012282405140014A9160704764
:1006F0008040005030380A2801D201207047002085
:10070000704701460020C043704730B504460D468F
:100710002046FFF75FFF204630BD0C20FFF77AFF31
:10072000FFF78CFFFFF70AFF00BFFEE710B5044696
:1007300010A02168FFF75EFD11A06168FFF75AFD68
:1007400012A0A168FFF756FD13A0E168FFF752FD64
:1007500014A02169FFF74EFD15A06169FFF74AFD5E
:1007600016A0A169FFF746FD17A0E169FFF742FD5A
:1007700010BD0000723020203D20307825780A001E
:10078000723120203D20307825780A0072322020F6
:100790003D20307825780A00723320203D203078C3
:1007A00025780A00723132203D20307825780A0001
:1007B0006C7220203D20307825780A00706320205C
:1007C0003D20307825780A00707372203D20307803
:1007D00025780A00303132333435363738394142E2
:1007E0004344454640305800303132333435363793
:1007F0003839616263646566403078001C08000027
:10080000000000200800000004010000240800008F
:10081000080000206004000020010000000000002B
:0408200000000000D4
:040000050000019165
:00000001FF
