:020000040000FA
:100000007804002091010000B1010000750100009A
:1000100000000000000000000000000000000000E0
:10002000000000000000000000000000B50100001A
:100030000000000000000000B7010000B90100004E
:10004000BB010000BB010000BB010000BB010000C0
:10005000BB010000BB010000BB010000BB010000B0
:1000600079080000BB010000BB010000BB010000DB
:10007000BB010000BB010000BB010000BB01000090
:10008000BB010000BB010000BB010000BB01000080
:10009000BB010000BB010000BB010000BB01000070
:1000A000BB010000BB010000BB010000BB01000060
:1000B000BB010000BB010000BB010000BB01000050
:1000C00000F002F800F046F80CA030C808382418F8
:1000D0002D18A246671EAB4654465D46AC4201D180
:1000E00000F038F87E460F3E0FCCB646012633426C
:1000F00000D0FB1AA246AB4633431847F408000071
:1001000014090000103A02D378C878C1FAD852070F
:1001100001D330C830C101D504680C6070470000BD
:100120000023002400250026103A01D378C1FBD813
:10013000520700D330C100D50B60704710B5782945
:1001400002D100F065F810BD002010BD1FB51FBD25
:1001500010B510BD00F096F91146FFF7F7FF00F05B
:10016000D9FB00F0AEF903B4FFF7F2FF03BC00F0D7
:10017000B5F9000004207146084202D0EFF309806F
:1001800001E0EFF308807146004A1047690500005E
:100190000D480E4901600E4901600E4901600E4A8A
:1001A0000E491160002101600D4880470D4800474D
:1001B000FEE7FEE7FEE7FEE7FEE7FEE70A480B493B
:1001C000094A0B4B70470000000100505900000025
:1001D000160000008800000024000050A55A00000E
:1001E00061080000C10000007800002078040020B1
:1001F000780000200FB4054910B503AA029800F05A
:1002000015F910BC08BC04B018470000100000200D
:1002100070B504460D4621461068C046C046218888
:10022000090502D50F4A7A4402E00E4A7A440E329A
:1002300023460021243305E006070009360F965DAA
:100240005E54491C0028F7D120780023000705D50B
:10025000702D03D0002901D002231132204600F076
:100260008DF870BD9E070000F3B50446002081B0F4
:1002700020622046E168884700287AD0252802D0ED
:100280006268A16871E0E16820460025884706465B
:100290000020E0610746A0612A2E0AD0304600F017
:1002A00013FB002827D0B8000019303E009086616B
:1002B00019E00298BA00121902C891610290204612
:1002C000E1688847012F064617D1E06900281FDA48
:1002D000202085431CE000980A218069484300994A
:1002E0008019303888612046E1688847064600F06A
:1002F000EBFA0028EFD1012F0AD02E2E08D120468C
:10030000E16888470646202005437F1C022FC3DB97
:10031000A069002803DA4042A06101200543E807F4
:1003200001D010208543002E23D0304641381928B3
:1003300003D80120C00205432036204625603146FF
:10034000029A1546FFF7FAFE00280BD0012806D0C6
:10035000ED1DE808C000083002908AE709E02D1D75
:10036000029586E762683046A1689047206A401C83
:100370007EE7206AFEBD704770477047FFB50446B0
:100380000D4681B0243000902168880604D51022E3
:10039000E0699143216000E00120A84201DD471B94
:1003A00000E000270498A1697A191018081AA061C2
:1003B0002078C00602D42046C046C046002608E089
:1003C00003986268A168805D9047206A401C761C93
:1003D000206204988642F3DB2078C0060AD52046C6
:1003E000C046C04606E06268A16830209047206A97
:1003F000401C206238467F1E0028F4DC07E000988D
:100400006268A168405D9047206A401C20622846CF
:100410006D1E0028F3DC2046C046C046207800064A
:1004200002D5022005B0F0BD0120FBE7084B70B5F6
:100430000D467B4400F013F80446284600F05EFAAF
:10044000002802D00020C04370BD204670BD0000CF
:10045000CF04000001694A1C02610878704700B5AA
:100460008FB00291002105910549019379440391D0
:10047000114604906846FFF7F7FE0FB000BD00007C
:10048000E5FFFFFF754600F025F8AE46050069461A
:100490005346C008C000854618B020B5FFF78EFE51
:1004A00060BC00274908B6460026C0C5C0C5C0C507
:1004B000C0C5C0C5C0C5C0C5C0C5403D49008D460A
:1004C000704710B50446C046C0462046FFF74BFEB5
:1004D00010BD000000487047180000200149182096
:1004E000ABBEFEE7260002007047000003488068AC
:1004F0000121084301498860704700000000014065
:1005000004498968021D012393409943014A91607F
:10051000704700008040005010B5002400BF03E089
:100520002046FFF7EDFF641C042CF9D310BD00003A
:1005300008498968FF225140064A9160054980397F
:100540008968021D012393401943024A803A916051
:100550007047000000410050FF2001300149086051
:100560007047000000E100E0044604A0FFF742FEEF
:10057000204600F0D5F900BFFEE70000496E204894
:10058000617264204661756C742048616E646C65AC
:10059000720A000000B522480068000A00022049E3
:1005A000086008460068032108431D4908600846A2
:1005B00000680321C9068843194908600846006895
:1005C000C90208431649086008464068000E000644
:1005D000486008464068134908431149486000F0E4
:1005E00041F9FFF7B9FF0E48006801218907084368
:1005F0000B4908600C48032109024018806840211B
:100600008843094903221202891888600648114666
:10061000401880684021084303498918886000BD5C
:1006200000000140C0C62D0000E100E000B5034617
:10063000184600F001F800BD00BF0B49896901228E
:10064000D20511400029F8D1074908600A280AD1CB
:1006500000BF054989690122D20511400029F8D15E
:100660000D21014A1160704700000540F3B581B0CB
:10067000029800F031F90090FFF74EFF584880686B
:10068000FF2108435649886000988079C407E40F29
:1006900000980079C507ED0F00988078C607F60F1F
:1006A00000980078C707FF0FE843A043B0432946EE
:1006B000A14331403940084321462940B143B94361
:1006C0000843C101464880688843454988603846E8
:1006D000A043F143A943394008432946A143B1430C
:1006E000084381013E48806888433D498860284628
:1006F00030403840E943A143B143394008432946DB
:10070000A143B143B94308432146A9433140B9430A
:10071000084341013248806888433149886028464F
:100720003040B843214631403940084321462940F2
:10073000B94308432946A143B14339400843010165
:1007400027488068884326498860E843A043B0432F
:1007500038402946A143B143B94308432146A94340
:1007600031403940084321462940B14339400843CC
:10077000C1001B488068884319498860E843A0434A
:100780003840E943A143314001433046A04338405B
:10079000084321462940B1433940084381001048AD
:1007A000806888430E498860084680680221884333
:1007B0000B49886020462840B843214629403140F3
:1007C0000843E943A1433140B943084304498968D8
:1007D0008143034881600198FFF7AAFEFEBD000037
:1007E0000041005010201B4900BF06E059221A4B5F
:1007F0001A6016221A6088221A60174A1268012AA3
:10080000F4D100BF154A126801231A43134B1A6032
:1008100004E00A46491E002A00DC04E00F4AD268C0
:1008200002408242F5D100BF0C4A526907231B02E5
:100830009A430A4B5A611A4652695A611A4692689B
:1008400004231A43054B9A6000BF0022024B1A6032
:1008500000BF7047804F120000010050000200509E
:100860007047000003480068012149070843014917
:10087000086070470000014010B5FFF74DFE104AB8
:100880001268D1B20F4A1268D0B2FFF7EFFE0C48DF
:100890000068401C0A490860084600680F280CD907
:1008A0000020086007480068401C064908600846A8
:1008B0000068032801D900200860FFF717FE10BD6B
:1008C000000000200400002030380A2801D2012056
:1008D000704700207047000010B50146002007E077
:1008E000012282400A4002414300034CE252401C74
:1008F0000428F5DB004810BD080000200146002058
:10090000C043704730B504460D462046FFF78EFEC3
:10091000204630BDFFF766FFFFF73CFE00BFFEE755
:1009200010B5044610A02168FFF764FC11A06168AF
:10093000FFF760FC12A0A168FFF75CFC13A0E16860
:10094000FFF758FC14A02169FFF754FC15A061695A
:10095000FFF750FC16A0A169FFF74CFC17A0E16956
:10096000FFF748FC10BD0000723020203D20307899
:1009700025780A00723120203D20307825780A0041
:10098000723220203D20307825780A0072332020F2
:100990003D20307825780A00723132203D203078B1
:1009A00025780A006C7220203D20307825780A00D6
:1009B000706320203D20307825780A007073722003
:1009C0003D20307825780A003031323334353637DF
:1009D0003839414243444546403058003031323383
:1009E0003435363738396162636465664030780083
:1009F000100A0000000000201800000004010000A0
:100A0000280A0000180000206004000020010000F7
:100A100000000000000000000000000000000000D6
:080A20000000000000000000CE
:040000050000019165
:00000001FF
